:020000040000FA
:020000000E29C7
:040002000034003492
:020008000F28BF
:1000100020008B130B1221007A3099000800FD009C
:10002000030E8301FE000408FF00B8207F0884004F
:100030007E0E8300FD0E7D0E09001D2821000C168A
:100040008C1624000C168C162000A2012214A40188
:100050000800200022183328A2183D2822194E2813
:10006000A2195F281D280C1A3828A201A21466289C
:100070008C1A6628A201221566280C1E4228A201AD
:10008000221466288C1A6628A3012314A201A21543
:10009000A40A183024060319A40166288C1E5328CC
:1000A000A201221466280C1A6628A301A314A20137
:1000B000A215A403A41F66281730A40066280C1EEE
:1000C00066288C1E6628A2012214662808002100DA
:1000D0000E148E1424002400003092000310920DA0
:1000E000080021000C152000A5012514A601080018
:1000F000200025188228A518882825199328A519D5
:1001000098281D280C1DA328A501A514A601A32825
:100110000C1D9028A60AA61DA328A5012515A32815
:10012000A5012514A3280C19A328A501A515A3280A
:100130000C19A028A60AA61DA328A5012514A328EA
:10014000A5012515A32808002000181798131815D5
:100150001812981220009913A001A101C130970034
:10016000803096001110210011142000181408008E
:100170002000111CC6281810A00A0319A10A8030FB
:100180009600C13097001110181436210800220083
:100190008E110E128E1221008E110E128E12200060
:1001A000F001F101F201080020002008A800210858
:1001B000A90003390310A80DA90DA80DA90DAB01C5
:1001C0000330A70072308400850120080F39AA008F
:1001D00000080F392A02AB0D00088039803A031D50
:1001E00003292908A800A80E0008AA002A1AA80DA9
:1001F000AA1EFC28A80DA80D0008A80CA806A80D8A
:10020000A80D03182B148403A70BE5280310AB0DCE
:10021000AB0DAB0D2B0822008E00080021007A30B8
:1002200021009512951323008E0123008C010820D4
:10023000A4201E20C7207120672020000B178B17D9
:10024000212920009F30F000D830F1000030F2006A
:1002500029292929251D2F290F30F0002A290030AE
:10026000F0002A2920002408F00032292920D42077
:0402700078200800EA
:020000040001F9
:02000E00A00848
:020010000308E3
:00000001FF
