:020000040000FA
:02000000EB29EA
:040002000034003492
:020008000F28BF
:1000100020008B130B1221007A30990008007C20FD
:100020003C210900122821000C168C1624000C1605
:100030008C162000A0012014A20108002000201826
:100040002828A018322820194328A019542812283B
:100050000C1A2D28A001A0145B288C1A5B28A00183
:1000600020155B280C1E3728A00120145B288C1A51
:100070005B28A1012114A001A015A20A18302206B4
:100080000319A2015B288C1E4828A00120145B28BC
:100090000C1A5B28A101A114A001A015A203A21FA4
:1000A0005B281730A2005B280C1E5B288C1E5B2887
:1000B000A00120145B2808003E00980129009E0141
:1000C0002C009C0122001D1421000E148E1421000E
:1000D00091159211240093019501960197019417AF
:1000E00014172030920015109514151595159516B6
:1000F0002000A301231408002000911DE6282318E6
:100100008A28A318942823199F28A319BE28231AE4
:10011000D528010020009111240094199028E0288E
:100120002000A301A314E62820009111E720031862
:10013000E0280319E0282000A3012315E628200069
:100140009111E7200318E028031DE0282000F03972
:10015000A500A50E2508013A0319B3282508023A7F
:100160000319B828B2282000A301A315A401E6288A
:100170002000A301A316A401E628BD2820003630E4
:10018000840085012408840720009111E7200318CA
:10019000E028031DE02820008000A40A2408033A78
:1001A000031DE628A3012316E6282400141ADA28E2
:1001B000FE30E028200091112000A3012314E6283E
:1001C000922120009111210091119211080020002C
:1001D000911124001418EF280314031108002400BF
:1001E00011080311941A0315080021000C152000B2
:1001F000A6012614A7010800200026180629A61823
:100200000C2926191729A6191C2912280C1D272983
:10021000A601A614A70127290C1D1429A70AA71DAA
:100220002729A60126152729A601261427290C19F6
:100230002729A601A61527290C192429A70AA71DD5
:100240002729A60126142729A601261527290800F3
:1002500020001817981318151812981220009913D7
:10026000A801A901C130970080309600111021002B
:1002700011142000181408002000111C4A2918101D
:10028000A80A0319A90A80309600C13097001110FE
:1002900018142A14080022008E110E128E1221004A
:1002A0008E110E128E122000B601B701B80108009F
:1002B00020002808AC002908AD0003390310AC0D5C
:1002C000AD0DAC0DAD0DAF010330AB003830840087
:1002D000850128080F39AE0000080F392E02AF0D36
:1002E00000088039803A031D87292D08AC00AC0E28
:1002F0000008AE002E1AAC0DAE1E8029AC0DAC0D60
:100300000008AC0CAC06AC0DAC0D03182F14840324
:10031000AB0B69290310AF0DAF0DAF0D2F082200F5
:100320008E0008002000B000B10131140800200048
:10033000B10108002000B1080319EA293118AA29DF
:10034000B118B8293119C629B119CB29311AE029B8
:10035000B101EA290330B300B2018030B500B40125
:10036000B415B101B114B601B7010F30B800EA29D4
:100370000130B2020030B33B0318EA299630B200D4
:10038000B1013115B601B701B801EA29B20BEA296A
:100390003408B100EA29B601B701B80130083505C3
:1003A000031DD5290230B600D8290F30B600D82950
:1003B0000330B300B201B4013416B101B114EA291B
:1003C0000310B50C031CE729B1013114EA29B1016E
:1003D000B115EA29080021007A3021009512951301
:1003E00023008E0123008C010820282113204B219B
:1003F000F5205C2020000B178B17AC309221B60142
:10040000B701B801032A20002A1C0C2A1E205821FB
:0A041000FC209A2120002A10032A84
:020000040001F9
:02000E00E00808
:020010000308E3
:00000001FF
