:020000040000FA
:020000004A2A8A
:040002000034003492
:020008000F28BF
:1000100020008B130B1221007A3099000800B420C5
:100020009B210900122821000C168C1624000C16A6
:100030008C162000A0012014A20108002000201826
:100040002828A018322820194328A019542812283B
:100050000C1A2D28A001A0145B288C1A5B28A00183
:1000600020155B280C1E3728A00120145B288C1A51
:100070005B28A1012114A001A015A20A18302206B4
:100080000319A2015B288C1E4828A00120145B28BC
:100090000C1A5B28A101A114A001A015A203A21FA4
:1000A0005B281730A2005B280C1E5B288C1E5B2887
:1000B000A00120145B280800200003142318080066
:1000C000231403104608C700080020004708C60094
:1000D00023104330F1216D2008002000241C08006B
:1000E000A401A41424001614AA30F1210800200051
:1000F000231C8B28C800470884008501480880001D
:10010000C70A45304706031D87282530C700450824
:100110004706031D8E28231003140800031008004F
:100120003E00980129009E012C009C0122001D1414
:1001300021000E148E1421009115921124009301B8
:100140009501960197019417141709309200151024
:10015000951015119515951620002530C500C6007F
:100160002310A401241408002000911D53292418F1
:10017000CD28A418D2282419EE28A4190E29241A4F
:100180002B29A41A3929FF30F1212000911153297C
:1001900020009111FF30F121532920009111DD3011
:1001A000F121532924009419D728FE304D2920002D
:1001B00091112000A401241520004508CA008400E4
:1001C00085010008240091002000CA0A45304A0633
:1001D000031D53292530CA00F12153292400161F7D
:1001E000F6285430F1212000911153292000A40158
:1001F000A41520004A08840085010008240091000D
:1002000020000F39C900200091112000CA0A453092
:100210004A06031D53292530CA0053292000911195
:100220002400161F16295630F121532920004A08B0
:10023000840085010008240091002000CA0A45308E
:100240004A06031D25292530CA002000C90B532961
:10025000A40124165329200091112400161F3329CC
:100260005630F1215329240016152000A401A416AC
:100270005329200091112400141A402914084D29F3
:1002800020004A08C5004606031D4929A40124147C
:100290005329A40124146D205329F1212000911128
:1002A000210091119211080021000C152000CB01B2
:1002B0004B14CC01080020004B186529CB186B2982
:1002C0004B197629CB197B2912280C1D8629CB01C5
:1002D000CB14CC0186290C1D7329CC0ACC1D862990
:1002E000CB014B158629CB014B1486290C19862985
:1002F000CB01CB1586290C198329CC0ACC1D862964
:10030000CB014B148629CB014B1586290800200010
:100310001817981318151812981220009913CD0168
:10032000CE01C130970080309600111021001114C9
:100330002000181408002000111CA9291810CD0A4B
:100340000319CE0A80309600C1309700111018149E
:100350004F14080022008E110E128E1221008E11F1
:100360000E128E122000DB01DC01DD0108002000EE
:100370004D08D1004E08D20003390310D10DD20D23
:10038000D10DD20DD4010330D0005D308400850141
:100390004D080F39D30000080F395302D40D00085F
:1003A0008039803A031DE6295208D100D10E000899
:1003B000D300531AD10DD31EDF29D10DD10D000862
:1003C000D10CD106D10DD10D031854148403D00BD8
:1003D000C8290310D40DD40DD40D540822008E006A
:1003E00008002000D500D601561408002000D601D0
:1003F00008002000D6080319492A5618092AD618D9
:10040000172A5619252AD6192A2A561A3F2AD601FA
:10041000492A0330D800D7018030DA00D901D91534
:10042000D601D614DB01DC010F30DD00492A013092
:10043000D7020030D83B0318492A9630D700D6019E
:100440005615DB01DC01DD01492AD70B492A590881
:10045000D600492ADB01DC01DD0155085A05031DE0
:10046000342A0230DB00372A0F30DB00372A033012
:10047000D800D701D9015916D601D614492A03103C
:10048000DA0C031C462AD6015614492AD601D61581
:10049000492A080021007A30210095129513230083
:1004A0008E0123008C01082087211320AA215421CA
:1004B000902020000B178B17AC30F121DE01DF01FB
:1004C000612A20004F1C6A2A1E20B7215B21F921D6
:1004D00020004F1020005F080319752A241C752A7C
:1004E00020001702F1212000DF0120004B1D7D2A92
:1004F0005E08031D612A5E147F2ADE01612A5C20EA
:10050000031C852A9030F121612A4030F12120001E
:100510006108E2006008E1004D08E00020002030A2
:100520007720133077200030600877200030610892
:1005300077200030620877204130F1214230F121EC
:10054000200017082000DF006520612AA82AC52A9C
:1005500020009F30DB00D830DC000030DD00612A55
:1005600020009F30DB000030DC00D830DD00B82AEE
:10057000B82A4B1DBE2A0F30DB00B92A0030DB0041
:10058000B92A20002208DB00C12A2400161420000A
:100590000230DB00E62220008830DB00DD22E6228C
:1005A000DD22E622D522E622B82A240016152000F4
:1005B000DB01DD018830DC0008002400D23091002E
:1005C0002000DB01DD010830DC00080024001618E3
:1005D000E62A2000DB010230DD0020009111080036
:0805E0001E20B7215B21080079
:020000040001F9
:02000E00E00808
:020010000308E3
:00000001FF
