:020000040000FA
:02000000622973
:040002000034003492
:020008000F28BF
:1000100020008B130B1221007A30990008007C20FD
:10002000CD200900122821000C168C1624000C1675
:100030008C162000A3012314A5010800200023181A
:100040002828A318322823194328A3195428122832
:100050000C1A2D28A301A3145B288C1A5B28A3017A
:1000600023155B280C1E3728A30123145B288C1A48
:100070005B28A4012414A301A315A50A18302506A2
:100080000319A5015B288C1E4828A30123145B28B3
:100090000C1A5B28A401A414A301A315A503A51F92
:1000A0005B281730A5005B280C1E5B288C1E5B2884
:1000B000A30123145B2808003E00980129009E013B
:1000C0002C009C0122001D1421000E148E1421000E
:1000D00091159211240093019501960197019417AF
:1000E00014172030920015109514151595159516B6
:1000F00020000130A80008002000911D80289111E7
:1001000008002000A81885288528080021000C1563
:100110002000A6012614A701080020002618972811
:10012000A6189D282619A828A619AD2812280C1D46
:10013000B828A601A614A701B8280C1DA528A70A4F
:10014000A71DB828A6012615B828A6012614B82888
:100150000C19B828A601A615B8280C19B528A70AA5
:10016000A71DB828A6012614B828A6012615B82868
:10017000080020001817981318151812981220005C
:100180009913A001A101C130970080309600111091
:10019000210011142000181408002000111CDB2875
:1001A0001810A00A0319A10A80309600C1309700E8
:1001B000111018142214080022008E110E128E1233
:1001C00021008E110E128E122000F001F101F201B9
:1001D000080020002008AA002108AB000339031002
:1001E000AA0DAB0DAA0DAB0DAD010330A900723005
:1001F0008400850120080F39AC0000080F392C025B
:10020000AD0D00088039803A031D18292B08AA007B
:10021000AA0E0008AC002C1AAA0DAC1E1129AA0DBA
:10022000AA0D0008AA0CAA06AA0DAA0D03182D14DF
:100230008403A90BFA280310AD0DAD0DAD0D2D08EB
:1002400022008E0008002000AE00AF012F1408002D
:100250002000AF08031961292F183429AF1841294C
:100260002F194629AF016129FA30B0008030B20061
:10027000B1013115AF01AF14F001F1010F30F200FF
:100280006129B00B61293108AF006129F001F1014A
:10029000F2012E083205031D50290230F0005329C7
:1002A0000F30F00053290310B20C031C5A29003000
:1002B000AF006129FA30B000B1013115AF01AF14C0
:1002C0006129080021007A3021009512951323003E
:1002D0008E0123008C010820B9201320DC20862009
:1002E0005C2020000B178B17AC3023212000221C30
:1002F0007F291E20E9208D20282120002210762928
:1003000082299F2920009F30F000D830F100003072
:10031000F200762920009F30F0000030F100D83044
:10032000F20092299229261D98290F30F000932976
:100330000030F000932920002508F0009B292400BC
:10034000161420000230F000C02120008830F00098
:10035000B721C021B721C021AF21C021922924009B
:1003600016152000F001F2018830F1000800240089
:10037000D23091002000F001F2010830F1000800B5
:1003800024001618C0292000F0010230F2002000DD
:0C039000911108001E20E9208D200800BB
:020000040001F9
:02000E00E00808
:020010000308E3
:00000001FF
