:020000040000FA
:02000000D02806
:040002000034003492
:020008001128BD
:10001000831203138B130B128316031370308F009C
:100020000800FD00030E8301FE000408FF0082208B
:100030007F0884007E0E8300FD0E7D0E09001F28C0
:1000400083160313051185110512051485148616F0
:1000500083120313A2012214A401080083120313C4
:1000600022183928A218432822195428A2196528D1
:100070001F2885183E28A201A2146C2805186C2898
:10008000A20122156C28851C4828A20122146C2884
:1000900005186C28A3012314A201A215A40A183084
:1000A00024060319A4016C28051C5928A201221456
:1000B0006C2885186C28A301A314A201A215A4031F
:1000C000A41F6C281730A4006C28051C6C28851C04
:1000D0006C28A20122146C280800831203139010CC
:1000E0001011901110129012A001A101FB308F008D
:1000F00030308E000C10831603130C14831203137C
:1001000010140800831203130C1C91281010A00A6D
:100110000319A10A30308E00FB308F000C10101430
:10012000FA20080083160313073085000511851196
:1001300005120800831203132008A6002108A70057
:1001400003390310A60DA70DA60DA70DA9010330B5
:10015000A50072308400831320080F39A80000081E
:100160000F392802A90D0008C039403A031DC728DD
:1001700000083039303AA800A80E2708A60003105E
:10018000A60CA80BC028A60C0318C72829108403A6
:10019000A50BAC280310A90DA90D2908850008009E
:1001A00008206D2020209220831203130B178B1739
:1001B0004F30F0000030F1000030F200DE2824085B
:1001C000F001F100F201DE28831203132408031D5D
:1001D000EB280511E4280515E42883120313211DDB
:1001E000F3280515F4280511A11CF8288515E42825
:0A01F0008511E4282E209A20080053
:02400E00103F61
:024010000000AE
:00000001FF
