:020000040000FA
:020000009D2938
:040002000034003492
:020008000F28BF
:1000100020008B130B1221007A3099000800A520D4
:10002000F1200900122821000C168C1624000C1651
:100030008C162000A0012014A20108002000201826
:100040002828A018322820194328A019542812283B
:100050000C1A2D28A001A0145B288C1A5B28A00183
:1000600020155B280C1E3728A00120145B288C1A51
:100070005B28A1012114A001A015A20A18302206B4
:100080000319A2015B288C1E4828A00120145B28BC
:100090000C1A5B28A101A114A001A015A203A21FA4
:1000A0005B281730A2005B280C1E5B288C1E5B2887
:1000B000A00120145B280800200003142318080066
:1000C000231403104608C700080020004708C60094
:1000D000231008002000231C7E28C800473084001D
:1000E000850148088000C70A45304706031D7A2865
:1000F0002530C70045084706031D81282310031437
:100100000800031008003E00980129009E012C0001
:100110009C0122001D1421000E148E142100911147
:1001200092112400930195019601970194171417D9
:100130002830920015109510151195159516200070
:100140002530C500C600231008002000911DA928F5
:100150009111080021000C152000C9014914CA01A1
:10016000080020004918BB28C918C1284919CC2803
:10017000C919D12812280C1DDC28C901C914CA01CB
:10018000DC280C1DC928CA0ACA1DDC28C90149156A
:10019000DC28C9014914DC280C19DC28C901C9155F
:1001A000DC280C19D928CA0ACA1DDC28C90149143F
:1001B000DC28C9014915DC2808002000181798130D
:1001C00018151812981220009913CB01CC01C130D8
:1001D000970080309600111021001114200018148F
:1001E00008002000111CFF281810CB0A0319CC0AA4
:1001F00080309600C1309700111018144D1408007B
:1002000022008E110E128E1221008E110E128E12ED
:100210002000D901DA01DB01080020004B08CF00E3
:100220004C08D00003390310CF0DD00DCF0DD00DE9
:10023000D2010330CE005B30840085014B080F39BA
:10024000D10000080F395102D20D00088039803AE0
:10025000031D3C295008CF00CF0E0008D100511AD1
:10026000CF0DD11E3529CF0DCF0D0008CF0CCF06F5
:10027000CF0DCF0D031852148403CE0B1E2903108B
:10028000D20DD20DD20D520822008E00080020009F
:10029000D300D401541408002000D40803199C2969
:1002A00054185C29D4186A2954197829D4197D293D
:1002B000541A9229D4019C290330D600D5018030EC
:1002C000D800D701D715D401D414D901DA010F30E1
:1002D000DB009C290130D5020030D63B03189C2955
:1002E0009630D500D4015415D901DA01DB019C29DF
:1002F000D50B9C295708D4009C29D901DA01DB01D0
:1003000053085805031D87290230D9008A290F3068
:10031000D9008A290330D600D501D7015716D40158
:10032000D4149C290310D80C031C9929D40154140B
:100330009C29D401D4159C29080021007A30210081
:100340009512951323008E0123008C010820DD20D7
:1003500013200021AA20832020000B178B17AC301C
:1003600047215C20031CB72980304721C129403038
:100370004721200024306A200318B4294130472146
:10038000C12920004D1CCA291E200D21B1204C215D
:1003900020004D10C129CD29EA2920009F30D90025
:1003A000D830DA000030DB00C12920009F30D900AE
:1003B0000030DA00D830DB00DD29DD29491DE329D2
:1003C0000F30D900DE290030D900DE2920002208B4
:1003D000D900E6292400161420000230D9000B228F
:1003E00020008830D90002220B2202220B22FA219F
:1003F0000B22DD29240016152000D901DB018830ED
:10040000DA0008002400D23091002000D901DB017D
:100410000830DA000800240016180B2A2000D90141
:100420000230DB002000911108001E200D21B120B8
:020430000800C2
:020000040001F9
:02000E00E00808
:020010000308E3
:00000001FF
